:1000000004308A00CC2C00000C002010A025C8274A
:100010004110CD205410CD20201000012021C126F8
:10002000A0202022EF342028E139731000000C00BA
:1000300020104E244128A026412AA02641000C0071
:100040004E2441282028C1295310CD274900D32010
:100050004910CD205410CD20211020102010000177
:10006000D3204910CD205410CD2021102010731022
:1000700080200C00C420CE23A0264F10C32A411D8F
:1000800020107300D3204910CD205410CD20211012
:10009000201020100001D3204910CD205410CD2075
:1000A00021102010731000014324D5202022551068
:1000B0003610CB2C202AD510000120224110CC2A4A
:1000C0005510CD20A026CF2421100001200032128F
:1000D000320883168700831207120800B212320812
:1000E000831687008312871208003A308400831336
:1000F0000008031988280230F800F701F70B7E2862
:10010000F80B7D289730F700F70B8428800B7B28AD
:10011000080040188D2888138E28881783168813A6
:100120008312C018952808139628081783160813F9
:10013000831240199D2888129E28881683168812DB
:100140008312C019A5280812A628081683160812BB
:1001500000008312081583160811AE28AF288312F9
:1001600008118316081183120800C101831688172D
:1001700000308312881B0130C10483160817003039
:100180008312081B0130F7000310F70D7708C10434
:100190008316881600308312881A0130F700F70D95
:1001A000F70DFC30F7057708C104831608160030F8
:1001B0008312081A0130F700F70DF70DF70DF8302C
:1001C000F7057708C1044108F800080083160811F4
:1001D0000810881083120810831608108817081753
:1001E000881608168312881483168810000083125C
:1001F00008158316081100008312B5207808C00086
:1002000008118316081100008312081583160811BF
:1002100009298312B5207808BF0008118316081138
:1002200088130813881208128312400EF700F0306A
:10023000F70577083F04F8007808BF00BF1F2229A0
:100240008316EE28BD08031D272908102829081445
:10025000831608100000831288108316881000008F
:10026000831208118316081183123E0EBF000F304F
:10027000BF053F08C00089203E080F39BF00C000FD
:10028000892008002830B6000C30B7000130B800D3
:100290000630B9000811831608118312081083165E
:1002A0000810831288108316881088130813881288
:1002B00008120811081088100F308312BA00752038
:1002C0000130B5003508033C031C6E290330C00023
:1002D00089200530BA007520B50A62290230C000B5
:1002E00089200530BA007520B5013508033C031C90
:1002F000852936303507840083130008BA00BD0114
:100300003A08BE00E620B50A75298A110A120F2D97
:100310003A0B8B298E294030BB008F29BB0101305D
:100320003902BB073B088038BC00BD013C08BE0059
:10033000E62008003808073A0319A8290B3A0319E0
:10034000AD29063A0319B529023A0319BB29C02978
:100350000130B900BA008821C529BD010130BE00B5
:10036000E6200230BA007520C5290130B9000230FC
:10037000BA008821C529BD011030BE00E620C5297C
:100380000130BD003808BE00E62008000B08B500AB
:100390008B13831603178C170C14000000008312B4
:1003A0000313B51B8B1703170C087F3903191A2A7F
:1003B0000313B50003170D080313B60003170F0846
:1003C0000313B7003508B8009A21360803178D00CB
:1003D0000313370803178F0003130B08B8008B13A0
:1003E000831603178C170C140000000083120313EC
:1003F000B81B8B1703170C0D0E0D7F3903191A2A22
:100400000313B50003170D080313B60003170F08F5
:100410000313B7003508B8009A21360803178D007A
:100420000313370803178F008D0A03198F0A03136C
:10043000C629031703130800043003178D0000308A
:100440008F000313C621053003178D0000308F0085
:100450000313C6210130B9000230BA0088210E30E2
:1004600003178D0000308F000313C6210800A4017C
:10047000FF30A500A600A700A800A900AA00080058
:1004800032113208831687008312071108000B0807
:10049000F7008B1303178D0103132B0803178C0030
:1004A00083168C130C1555308D00AA308D008C14DA
:1004B0008C18582A0C117708831203138B040B082D
:1004C000F7008B13013003178D0003132C0803175B
:1004D0008C0083168C130C1555308D00AA308D00BE
:1004E0008C148C18712A0C117708831203138B0457
:1004F0000B08F7008B13023003178D0003132D0830
:1005000003178C0083168C130C1555308D00AA3000
:100510008D008C148C188A2A0C117708831203130F
:100520008B040B08F7008B13033003178D000313A4
:100530002E0803178C0083168C130C1555308D0074
:10054000AA308D008C148C18A32A0C117708831202
:1005500003138B040B08F7008B13043003178D0073
:1005600003132F0803178C0083168C130C155530BA
:100570008D00AA308D008C148C18BC2A0C117708C1
:10058000831203138B040B08F7008B13053003173A
:100590008D000313300803178C0083168C130C1581
:1005A00055308D00AA308D008C148C18D52A0C1172
:1005B0007708831203138B04080003178D01831639
:1005C0008C130C1483120C080313B500350FEA2AA0
:1005D0004722252B03178D0183168C130C148312CD
:1005E0000C080313AB00013003178D0083168C1326
:1005F0000C1483120C080313AC00023003178D0097
:1006000083168C130C1483120C080313AD000330F3
:1006100003178D0083168C130C1483120C0803131C
:10062000AE00043003178D0083168C130C14831254
:100630000C080313AF00053003178D0083168C13CD
:100640000C1483120C080313B0008A110A12132D24
:1006500083160612831206128316061483120618D6
:100660003C2B831606148312061C312B0A30BA0069
:1006700075200130F8004A2C8316861483128618E0
:100680004C2B831686148312861C412B0A30BA0029
:1006900075200430F8004A2C8316061583120619BB
:1006A0005C2B831606158312061D512B0A30BA00E7
:1006B00075200730F8004A2C831686158312861998
:1006C0006C2B831686158312861D612B0A30BA00A7
:1006D00075200A30F8004A2C83160612831206167B
:1006E0008316861283128612831606148312061846
:1006F000842B831606148312061C792B0A30BA0049
:1007000075200230F8004A2C83168614831286184E
:10071000942B831686148312861C892B0A30BA0008
:1007200075200530F8004A2C831606158312061929
:10073000A42B831606158312061D992B0A30BA00C6
:1007400075200830F8004A2C831686158312861906
:10075000B42B831686158312861DA92B0A30BA0086
:1007600075200030F8004A2C8316861283128616F4
:1007700083160613831206138316061483120618B3
:10078000CC2B831606148312061CC12B0A30BA0028
:1007900075200330F8004A2C8316861483128618BD
:1007A000DC2B831686148312861CD12B0A30BA00E8
:1007B00075200630F8004A2C831606158312061998
:1007C000EC2B831606158312061DE12B0A30BA00A6
:1007D00075200930F8004A2C831686158312861975
:1007E000FC2B831686158312861DF12B0A30BA0066
:1007F00075200B30F8004A2C831606138312061757
:100800008316861383128613831606148312061822
:10081000142C831606148312061C092C0A30BA0005
:1008200075200D30F8004A2C831686148312861822
:10083000242C831686148312861C192C0A30BA00C5
:1008400075200E30F8004A2C8316061583120619FF
:10085000342C831606158312061D292C0A30BA0083
:1008600075200F30F8004A2C8316861583128619DE
:10087000442C831686158312861D392C0A30BA0043
:1008800075201030F8004A2C8316861383128617C1
:100890000C30F8008A110A12152D173003178D003D
:1008A00000308F000313C621183003178D0000306D
:1008B0008F000313C6210130B9000230BA0088212D
:1008C0000800B5013508053C031C792C2530350797
:1008D000840083130008B6002B303507840083138F
:1008E000000836020319772C0030F8007B2CB50A7B
:1008F000622C0130F800080032123208831687009B
:1009000083120716080032113208831687008312FB
:10091000071508003608F80135020318922C35082F
:10092000F7009E2CF7010830B700B50DF70D36081B
:1009300077020318F700F80DB70B952C0800B601E5
:10094000350836020318AE2C8324C830BA0075204F
:100950004022C830BA007520B60AA02C0800B21296
:10096000320883168700831287168A110A12C32D54
:100970001F3003178D0000308F000313C621203075
:1009800003178D0000308F000313C6210130B9001A
:100990000230BA008821080003081F398300A00133
:1009A0000C3083169900A230980090308312980082
:1009B000A101A201B101FF30B20083161F149F14E0
:1009C0001F159F1107309C00831301308312AB0069
:1009D0000230AC000330AD000430AE000530AF0093
:1009E0000630B00000308316880080308700831204
:1009F000B2000F308316860081130612831206168A
:100A00008316861283128616831606138312061720
:100A1000831686138312861767206E2042291C22B4
:100A200037224022DD2AA101282B7808A3002308C1
:100A30000C3C0319E52E2308F13E0318E52E0F3E6A
:100A4000E72EA108031D2A2D0130A1000230A200CB
:100A50004D243F2D210B2D2D312D2108033C031D4D
:100A60003F2D2408053C031C3F2D2530240784001E
:100A70008313230880002A30B8009A21A40AE52EA7
:100A8000210BEF2D2208023C031DEF2D6124780875
:100A9000B300B308031DAC2D3108023C0318B10AA2
:100AA000310B712D0130B9000230BA008821273096
:100AB00003178D0000308F000313C6217C2483248C
:100AC0000C30B500FA30BA007520B50B622D372214
:100AD000672040224D240130B9000230BA0088213D
:100AE000AB2D0130B9000230BA0088213030031735
:100AF0008D0000308F000313C62183247C240F3027
:100B0000B400B4080319A62D0E30B9000230BA00A3
:100B100088213408B5000A30B6008A2430307807BE
:100B2000B500B8009A213408B5000A30B6008A240E
:100B300030307707B500B8009A210430B500FA309C
:100B4000BA007520B50B9F2DB403812D3722A1016A
:100B50001C2267204022EE2DB101393003178D0091
:100B600000308F000313C6210130B900BA0088217C
:100B70003A3003178D0000308F000313C621013077
:100B8000B5009F24AF2C0A30B400B4080319EA2D35
:100B90000D30B9000130BA0088213408B5000A30A0
:100BA000B6008A2430307807B500B8009A2134089E
:100BB000B5000A30B6008A2430307707B500B80097
:100BC0009A210430B500FA30BA007520B50BE32D38
:100BD000B403C52D3722A1011C226E20A92E210BA2
:100BE000622E2208033C031D622E61247808B300A4
:100BF000330B022EB8240130B5009F243722033076
:100C0000A100612E3108023C0318B10A310B272ED6
:100C10000130B9000230BA008821423003178D003C
:100C200000308F000313C6217C2483240C30B500D0
:100C3000FA30BA007520B50B182E372267204022F3
:100C40004D240130B9000230BA008821612E0130F4
:100C5000B9000230BA0088214B3003178D000030F4
:100C60008F000313C62183247C240F30B400B40802
:100C700003195C2E0E30B9000230BA008821340806
:100C8000B5000A30B6008A2430307807B500B800C5
:100C90009A213408B5000A30B6008A24303077072C
:100CA000B500B8009A210430B500FA30BA007520BA
:100CB000B50B552EB403372E3722A1011C22672015
:100CC0004022A92E2108033C031DA92E2408053C1F
:100CD000031C832E0130B9000230BA008821543041
:100CE00003178D0000308F000313C6210330B500B9
:100CF0009F240430B500FA30BA007520B50B7B2E66
:100D00003722B824A92E2508AB002608AC002708F6
:100D1000AD002808AE002908AF002A08B00047221D
:100D20000130B9000230BA0088215D3003178D0010
:100D300000308F000313C6210230B5009F24043019
:100D4000B500FA30BA007520B50BA12EA1013722EB
:100D50001C22E52E210BB02E3722A1011C22BA2E17
:100D60002108033C031DBA2E0230B5009F24A101C7
:100D700037221C22E52EA108031DC32E0130A1003D
:100D80000330A2004D24E52E210BE52EA408031903
:100D9000E52EA4032530240784008313FF30800050
:100DA00001302407B500B9000230BA00882166304E
:100DB00003178D0000308F000313C6210130240774
:100DC000B500B9000230BA008821142D63000A1062
:100DD0008A140A158207212D212D212D212D212D47
:100DE000212D212D212D212D212DAA2E402DE52E25
:040DF000BB2EC42E24
:02400E00723FFF
:00000001FF
;PIC16F877A
;CRC=AF31  CREATED="21-Apr-23 13:19"
